:20000000A03A0120910D010039FB021039FB021039FB021039FB021039FB021039FB0210A2
:1C00200039FB021039FB021039FB021039FB021039FB021039FB021011FB021002
:20003C00543E0020603A0020CC3D0020403B002058270020843C00205C3E0020143D0020CA
:20005C00DC3D0020A43B0020401B0000F81E0000901F0000141F0000061F0000EC3D00208B
:20007C0094250020982500209C250020A0250020A4250020A8250020AC250020B02500202C
:20009C00B4250020FC3D0020D43A0020A43D0020D03B002022160000B015000094160000F1
:2000BC000617000078170000D41D00003C1F0000301F00009D3E0020303E0020E427002029
:2000DC00303D0020142700201F3A00206A3E0020743B0020B83D00204C220020B82500206C
:2000FC00A8140000AB1100007019000038210020D81E00007C360020943E0020903E0020C2
:20011C00BC250020C0250020883E0020901A0000643D0020FC370020203A0020C4180000C3
:20013C0028280020703E0020803E0020BC1F00001420000060250020E43100201429002041
:20015C00014A031049480310D54903101547031025C300005D49031081470310A14603106B
:20017C009548031045450310254A031021440310ED47031099490310E148031021490310E7
:20019C005553031089520310CD520310655003108D4E0310CDC70000A9DB000019FC000085
:2001BC009D5C000059510310ED500310A5BA0000CD4B03102952031011530310A95503107D
:2001DC007555031069530310DD55031035550310D1C3000021540310855C03100D560310EF
:2001FC004D5D0310A9640310B55B03106D570310E5610310095E0310C55803108560031011
:20021C0071610310B16203109963031055630310FD600310B15E0310E1B60000D55A031072
:20023C00D559031009630310D963031019640310555F0310C56403104D6203107164031056
:20025C008D64031055640310E16403102975031079720310A16B0310F57203109D740310EE
:20027C00797403102D74031061730310FD7303105574031015750310D96C0310FD740310EF
:20029C0055870000E17403103D75031079700310F9640310CD6803102D710310C17403108C
:2002BC00F56E0310B973031029670310056E0310C56F0310E1710310A1770310797D031064
:2002DC003D7E031049750310157E0310357D031099760310997C0310257B031071780310FF
:2002FC00B57D0310ED7C0310857E03102D790310B97A0310917B0310B1790310ED7B031035
:20031C00E97D0310617E0310357A0310D57E0310457C0310A57E0310BD7E03100DAD00001C
:20033C00D9800310E97E031049830310898403108D8103107D820310E58403102B8403104B
:20035C00C5830310918703106188031045880310F1850310B18803107D880310C9880310CE
:20037C001D870310A186031001850310E188031099880310F9870310E5B90000359C031012
:20039C00819D0310E99A0310359B0310C19B0310419A0310F18803101D8C0310618F0310EF
:2003BC00F1940310919E0310C19E03103D9E0310699E0310259E0310619D03100D9E031028
:2003DC00819B0310ED93031055990310C9970310D9980310BD950310959C0310C19D03102D
:2003FC00A59E03107D9E0310C991031069D90000699C0310DD9D031095900310FD9B031026
:20041C00CD990310158E0310019D0310E19C0310219D0310419D0310BD9C0310F59D03107D
:20043C00A19D031055980310E1920310999A0310B99E0310559E031061300100294801000F
:20045C0039A203101B44010069A1031075A20310C59E0310B9A10310F9A1031015A1031092
:20047C009DA203102D520100F3B2000005BF00006D28010049510100B13B000031A903101B
:20049C00ADA20310D99D0000B9A8031099A50310D9A5000039A803106DA9031089A60310C6
:2004BC006DAC031099B1031009AF031059B1031001B103109DA90310C9E3000061D50000AF
:2004DC004B1E01008DCD0000ED5F00008D11010061CA0000D9670000F5A2000081A9000025
:2004FC0049B10000F1B9031075BA031081BB0310912C010009EA0000DD070100C5B300008A
:20051C00892A0100E9020100393501004D030100592C0100993E0100194701007D0701001B
:20053C00E51C0100313101006115010005D00000754A01006DF20000D51E0100A54A0100EB
:20055C00B577050021630000495E00004D750000E9C60310A553000061960000094D010059
:20057C00512E01000F4801003D080100B953010043480100F54C01006D540100C50A0100D4
:20059C006DDE000019DB000001000000000000000000000000000000FFFFFFFFCC280020EF
:2005BC000400000000000000000000001400000030FD021018000000F41F00006406000033
:2005DC00A42800200400000000000000000000002400000018FD021018000000C54B01009B
:2005FC00080000005407000018060000C1C8021001BB021091EB0210DDE5021081E0021020
:20061C00B9E5021071E502103100000001000000010000004820000000000000FFFFFFFF0F
:20063C00C428002004000000000000000000000028000000B8FC0210240000001E0000005E
:20065C001800000000000000CC080000780600009BEC021025E2021005EB021025DE02104B
:20067C00FDE10210E1E402102F000000340000002400280000000000B8270020FFFFFFFFED
:20069C00EC280020040000000000000000000000380000006CFC021028000000010000002B
:2006BC00100000000000000000000000F7F1021000001A001000000003000000841F000044
:2006DC00991F0000080000003600000078270020F425002009001D009B080100C024002042
:2006FC000100000000001200FFFFFFFFDC2800200400000000000000000000001000000097
:20071C0048FD0210180000000000000000001300FFFFFFFFF42800200400000000000000FF
:20073C000000000054000000A0FB02103C000000000001002D000000A80500003B05010044
:20075C003000000089530100540700007C07000059D20210D9DB021059EC0210CDD6021083
:20077C0085DE02104DE5021029E5021030000000000016000000000000000000FF7F0000C0
:20079C006C230020FFFFFFFFD428002004000000000000000000000058000000DCFB021031
:2007BC003400000039FB021001002F00060000000000000020000000010000001BF8021027
:2007DC0028000000CC080000F407000093EC02106DEB02104DEC021029E00210BDE40210F2
:2007FC0099E402102D00000000000000AC2800200400000000000000000000001000000019
:20081C0040FC02102C000000000000000000030000000F003C0000000000000000000000F4
:20083C002FF902101000000008000000401E0000FFFFFFFFE42800200400000000000000C0
:20085C00000000001C000000DCFC021024000000E00700009428002004000000000000008B
:20087C00000000000C00000000FD021018000000BB21010000000000000000000800000044
:20089C000100000004000000000000000000140000000000C0190000000019000000180019
:2008BC00240000009D5401000040000000020000A80500000000100055F002100C000000A4
:2008DC00E99E0000000000008C2800200400000000000000000000002000000010FC02105F
:2008FC0030000000D8190000010000006953010067FA000000000000000017000002000083
:20091C003100000000002300000015000100000064070000BC2800200400000000000000DE
:20093C00000000002000000094FC021024000000F01900006028002020000000181C0000B0
:20095C00F43500209C3A0020742800204C3E002018230020643E00201C140000243E002007
:20097C006835002080370020DC3900205428002010290020B41F0000090803100101031091
:20099C00890903105D0303100105031089060310D1080310210A0310810B0310810A031001
:2009BC00110B0310510B0310D10A031029100310610D0310890E0310050E0310B50F03101B
:2009DC00D10B0310511003103D10031065100310FD0E0310ED0F0310B50C0310650F031028
:2009FC00111003106910031009120310F5120310AD110310291103105D120310B11203105D
:200A1C0019250310552703108D240310F12603100528031089260310CD2303105928031053
:200A3C00ED1F0310251303100D210310911D0310B12703100D2203109925031019260310DE
:200A5C00A91B0310CF2803109528031039290310052903106D29031099160310C91E0310AE
:200A7C007D1903100D230310C92C03101D2C0310292D0310B52B0310F52C03109D290310A1
:200A9C00CD2A0310452B0310472D0310112D0310412D0310752C031029340310C138031024
:200ABC0071360310A12E0310813303106D380310A93A03103D3A0310C53403101138031017
:200ADC00753A03104D2D031009320310E12F031015390310F939031019310310B13703103C
:200AFC00F5350310B13903105D350310C5320310E5360310693903104D370310253D031002
:200B1C00413D0310F53C0310C93A0310A53C03109D3D0310593D031019430310CD3D0310B8
:200B3C00A14303104D400310093F031061420310CD400310C9430310E5430310C93F03105C
:200B5C0011440310FD4303101F440310A942031019420310E1420310C141031075430310C6
:200B7C0049430310494103101B440310AD0B0310095401000D540100195401007F520100E0
:200B9C001D54010015540100115401002554010021540100743E00206D400021D74000212F
:200BBC0099400021F940002105410021114100212941002141410021074C657900F009F89B
:200BDC0061796940490703D50121044A8903116070BD70B5024908478003002108110440F4
:200BFC002D59000000F019F8E1B26C290BD0042801D0062807D10E490978C90703D1217837
:200C1C00090700D402200B490A780C21114202D0094980220A6003B0F0BDF0B583B00749A4
:200C3C0008470448017840229143017004480047C80000213301002100E200E041160300F0
:200C5C00231B030000F082F800480047577F000000F082F8004800471B880000094B1A78E6
:200C7C000824A243002800D022431A70004A1047838E000003490878000701D40248004775
:200C9C0070470000800300215F7E0000044A282090470448012141600348044A41601047F3
:200CBC004F42000000500440006004408542000070B51F4D2878C4B21E48804728780328E9
:200CDC0034D1032C32D01C488068400DC2071A48014660318030002A03D01F240C57458806
:200CFC0002E01E240C570588002C1FD01348154A4169007941434810114949694018104933
:200D1C004039497F904740054015694288420DDBA8420BDC0C4B996988B20246090C624342
:200D3C0009045212801880B20843986170BD0000E40200217941000028000021800300213D
:200D5C0000030021CB81000040400440806B0C490007000F48717047094A0A4918235079D3
:200D7C00CB56497EC018814201DD084602E00F2800DD0F20D189090909010143D1817047C0
:200D9C00E0020021880000213C202020202020434F4E4649475552452020202020203E00EF
:200DBC003C2020202020205345542050414E49442020202020203E003C20202020534554FD
:200DDC00204348414E204D41534B202020203E003C2020202020534554204E574B204B452B
:200DFC005920202020203E003C2020202020204241434B2020202020203E00C03C20202039
:200E1C004E4554574F524B20414354494F4E532020203E003C2020202020204153534F4348
:200E3C00494154452020202020203E003C202020204449534153534F4349415445202020DD
:200E5C0020203E003C2020202020202020204150502020202020202020203E003C202020C1
:200E7C0053454E44204C4544204944454E54202020203E002054492053656E736F7220006E
:200E9C003C20202020202048454C502020202020203E00C0002020202020202020202828E3
:200EBC00282828202020202020202020202020202020202020881010101010101010101036
:200EDC00101010101044444444444444444444101010101010104141414141410101010104
:200EFC000101010101010101010101010101010110101010101042424242424202020202D2
:200F1C00020202020202020202020202020202021010101020000000000000000000000035
:200F3C00000000000000000000000000000000000000000000000000000000000000000095
:200F5C00000000000000000000000000000000000000000000000000000000000000000075
:200F7C00000000000000000000000000000000000000000000000000000000000000000055
:200F9C000000000000000000000000000000000000000000000097B92EE5725CCB5DCAE42E
:200FBC0073B82F0196BA2D03945FC8E671E7705EC90295BB2CE3745ACD0691BF28BE290742
:200FDC00905BCCE27559CEE077BC2B05920493BD2AE17658CF51C6E87FB4230D9A0C9BB597
:200FFC0022E97E50C7EB7C52C50E99B720B6210F9853C4EA7DB2250B9C57C0EE79EF785684
:20101C00C10A9DB324089FB126ED7A54C355C2EC7BB027099EA2351B8C47D0FE69FF6846D4
:20103C00D11A8DA334188FA136FD6A44D345D2FC6BA037198E41D6F86FA4331D8A1C8BA505
:20105C0032F96E40D7FB6C42D51E89A730A6311F8843D4FA6DF3644ADD1681AF38AE3917D2
:20107C00804BDCF26549DEF067AC3B15821483AD3AF16648DF1087A93EF5624CDB4DDAF447
:20109C0063A83F1186AA3D13844FD8F661F7604ED91285AB3C00CD2A031000452B031002CC
:2010BC001F44031000FD430310011F44031000FD43031003D10B031000FD430310045110D7
:2010DC00031000FD43031001472D031001412D031001FD43031001FD43031001FD43031088
:2010FC0000752C031001FD43031001FD43031001FD43031001FD43031002472D0310024104
:20111C002D031002FD43031000752C031002FD43031002FD43031002FD0E031002FD43035B
:20113C0010046510031000FD43031003472D031003412D0310031F440310031F44031003A1
:20115C00FD43031003D10B031003FD43031000752C031003FD43031003FD43031004472D00
:20117C00031004412D0310041F440310041F440310041F440310046510031004FD4303106A
:20119C0004FD430310043D10031000752C0310000136360101000102010001030100010447
:2011BC00010606080400000C0100340D01000F10040101140100FF16080000200200002210
:2011DC000100FF23010001240100FE250100082602000028010001290100012A0200002CA8
:2011FC0001000F2E0200003001000131010008320200FF34010007350102FF360100003713
:20121C0001000138010001390100FF3A01000F3C0200FF3E01010F3F0100014001041F4181
:20123C00010001420100FF43010080440800004E0100084F01000F50010001510100FF5293
:20125C0001000A5301008954010001580400005C0400006004000064040000680400006CD4
:20127C000400007004000074040000780400007C040000800100FF8101000182010001835C
:20129C0001010284010001FF182900209F3E0020A03E0020192900206B3E00201A290020BF
:2012BC001B290020395201001D390000CD4901002D390100A9340100E11101003512010035
:2012DC0085E9000011150100F93B010079340100C11401000B5301001D4D0100C1400100D8
:2012FC00953001002D3E0100D538010001390100C9300100D9340100D9E400006DC0000065
:20131C008B3A0100711401001D070100155201002152010037D40000A9460100D7D80000BA
:20133C0069CF00009D1C0100F9DE0000FD30010045520100A14201002D4A010075540100DC
:20135C00C52A0100B17600006142010011E000007D24010003080000000000000000000018
:20137C000001640300000000000000000538000000000000000000000000000000000000AC
:20139C000000000000000000033800000000000000000000820108101400008400000000C3
:2013BC004E90550000000000073800000000000000000000000121030F008000520798E01A
:2013DC000800C810A42600206403008005000000043800000000000000000000000188F97D
:2013FC004E90550000000000FF0710580000FC010000000000000000000000000000000033
:20141C000000000000000000000000000000000000000000000000000000000000000000B0
:20143C00000000000000000000000000000000000000000000000000000000000000000090
:20145C00000000000000000000000000000000000000000000000000000000000000000070
:20147C00000000000000000000000000000000000000000000000000000000000000000050
:20149C00000000000000000000000000360001000600000000000000000F000000000000E4
:2014BC00000000000000000000000300FFFF00000403FFFF0000FFFF0F00E8030005401FAE
:2014DC000310000101000000FF3F0F0008000E0000000000000000000300010F000009015B
:2014FC000000000000000000000000000000000000000000000000000000000000000000D0
:20151C00000000000000000000000000AD0000010000000000000000000000000000000001
:20153C0000000000000000000000000000000000000000000000000000000000000000008F
:20155C0000000000000000000000000000000000000000000000000000000000000000006F
:20157C0000000000000000000000000000000000000000000000000000000000000000004F
:20159C000000000000000000000000000000000000000000010171010101010111010101A3
:2015BC0031010101010180010001100161013B00140063017301720162014301000113018E
:2015DC0006013D01350004011201000100010001000104010401330133013C014401320132
:2015FC003600000100016501000135008101000105018201830100016601000100010801F8
:20161C0009010A010B01030071003001600011007000310220035004800007001000610065
:20163C0000001400630073007200620043000000130006000000000004001200000000005E
:20165C000000000004000400370037003C024400000000000000000065000000350081005B
:20167C0000000500000083000000660000000000080009000A000B0003027102300160022F
:20169C001102700201020202020280020002100261023A0041006302730272026202430233
:2016BC000002130238000002000204021202000200020002000204020402370037003C02E1
:2016DC004402000239000002000265020002350281020002050282028302000266020002C8
:2016FC000002080209020A020B0201037103010301030103010301032203020301030003E1
:20171C001003000300030003000300030003000342030003240306030003000304031203EB
:20173C002503230325032303040304030003000300034403000300032303000365032100DB
:20175C003503810300030503000300030003000325032303080309030A030B03030471049E
:20177C00020460041104700402040204010402040004100461040004140463047304720456
:20179C00620443040004130406040004000404041204000400040004000451046400000468
:2017BC00000400044404000400040004000465040004350481046400050400048304000486
:2017DC00660400040004080409040A040B040001DB470100DD4B0100C9DC00007D220100B3
:2017FC0001410100A1D0000009F10000FB3F010021410100B9360100E736010079270100D2
:20181C0035320100C5480100F9080100951601005901010055090100DBFD0210BD3E0100E8
:20183C0011DC021055DD000091510100B13901005D4E0100714E010089470100A55100005A
:20185C00ED7F0000000000000000000000000000F5480100A94D0100CDF300006D4D010050
:20187C00A7530100A1530100BD4D010000000000375301005DF7000041FB00001D460100D2
:20189C0039D40000E74E0100E9AD0000814B000031E200000142010000000000890C01009A
:2018BC00C94501004DCC0000000002000000020002000200000003000400010000000200D2
:2018DC000000000000000000050001000000070006000100000003000700080000000000C6
:2018FC000F0001000100FF0010000800000000001800080000000000220002000000000060
:20191C008F0000008F0001008F0002008F000300900000018F000101900000029000000322
:20193C008F0001048F0000058F0008048F0000048A000006510000007F0001003F00040091
:20195C003F0002003F0001007F0002008F0002048F00010238C40D00C800000081000000F0
:20197C0032000F0100C50D00900100004000000096000501952B0D00C80000002200000013
:20199C0032000F0200000000000000000000000000000000000000000000000000000000E8
:2019BC00000000007B7374617469632D696E7374616E63652D6E616D657D00C07B656D70BE
:2019DC0074792D696E7374616E63652D6E616D657D00C0467B756E6B6E6F776E2D696E7329
:2019FC0074616E63652D6E616D657D007D0B01001FF9021045F8021059F802106DF8021099
:201A1C0081F8021095F8021011EE0000C93501007D260100BD2E0100293F0100854E0100B5
:201A3C00A1430100E12D01000B510100AD4B0100F9F90000A54C01002D4F01009D7F0500BE
:201A5C001D4F01001F530100775301007153010000000000000000000000000000000000FA
:201A7C00000000000000000000000000C5500100B7500100C003000080070000000F0000D3
:201A9C00001E0000003C00000078000000F0000000E0010000C003000080070000000F002E
:201ABC0000001E0000003C00000078000000F0000000F0001404C0A0FE0000001404C0A06A
:201ADC000A0480A0090480A008400080FE0000000D0480800C4000800F2000800E2000808F
:201AFC000604808007048080FE0000000001040000333333333333333333333333333333B5
:201B1C00330301464854657374000000000000000000000000000000000000000000000044
:201B3C00000000000000000002000000020000000A00000002000000020001000000000076
:201B5C000000000000000000000000000000000000000000000000000E0000002F530100D8
:201B7C0095530100293301003D4501003D1001005945010011EB0000A11F0100795101000B
:201B9C001D86000001E90000210201003F530100E9730000A9830000AD53010079170100CB
:201BBC002DAC0000B353010045D8000054070000E01B00002D5001003D5001005D500100FC
:201BDC004D50010059360100713F0100093A01003200000000B0004014000000340000005C
:201BFC00FF000000000000000D0CFFFF643C002020000000010300000000000015F90210AF
:201C1C0001E602102DDA021045E7021041D10210C9D30210A5DF02102DE4021061EA021070
:201C3C00BD2601000303001B5B324A1B5B32301B5B3F32356C001B5B324A1B5B32301B5B0C
:201C5C003F32356C0000000000000000FFFFFFFFFFFFFFFF0000000000000000010101015A
:201C7C0000C201000300000000000000CC0800009C1C00008954010085DF0000B5F400000B
:201C9C00F93501004D3F0100DD3901002E0000004E42434E0000070005000000FFFFFFFFFE
:201CBC00FFFFFFFFFFFFFFFFFFFFFFFF010000000000000000000000000000000000000013
:201CDC0000000000000000000000000000000000FFFFFFFF000000000000000000000000EC
:201CFC003A013A010000000000000000000000000000000000000000000000000000000052
:201D1C0000000000000000000000000000000000881C00009C28002004000000000000001B
:201D3C000000000020000000EC1D000018000000C81B0000B4280020040000000000000063
:201D5C000000000014000000881D00001C0000001404C0A0FE0000001404C0A00A0480A076
:201D7C00090480A008400080FE0000001C00000000000000000000009C1D0000000000007F
:201D9C0008000000000000000100000040420F00010000000000000000000000000000008C
:201DBC0000000000000005800000068000000780000000000000000000000500BD00B700FC
:201DDC00B100BC001C0030003800080038010200180000000000000000000000FC1D000082
:201DFC00080000000000000018280020082800200400000004000000FFFFFFFF000000000B
:201E1C0091B40000F547010001010100000000000000000006000000020000008600000093
:201E3C00820000000100000000000000000000000000010000000100001610160E18151C6E
:201E5C0002120324185803021002580100010001020300010001000102000102020000003A
:201E7C0000000000FFFFFFFF00000000A0380020EA170000C8380020EB170000050000002A
:201E9C00D0070000C8000000FF000000B0340020182000000C3500201A20000002000000AF
:201EBC0000000000FFFFFFFF000000000000000020000000400000006000000088B22400EC
:201EDC008813000010000000000000010000808000008084002080840040808400A6AAACD2
:201EFC00A4A9A9A399B19ABCB6A8313118191A22311C1E2031313431313117191A21241B02
:201F1C001D1F313133310104FF00000000000000000100000C0E020B040B0A070800110F2F
:201F3C00000120181A18182C34041E00781B00008C3E0020E41F0000FF0001000000000000
:201F5C0000000000A01B000030300020F01B000000000080002000800040008000000080BF
:201F7C00000400800008008025DD021031C8021075DF02100204020101010109020000009D
:201F9C0000BE040A00BE02080102000302000103FFFFFFFFFFFFFFFF3545251502030504CB
:201FBC0000040810000408104C3D0020A3120000E803000000006400FF0000000000000021
:201FDC00970E0100415401000020050000400000000000000800000000000000000000003C
:201FFC0010040810181C10000810182004040810181C000001020304000105090201030191
:20201C00000000001000000001000000CB5301008D540100F7F90000D1530100A9180100BB
:10203C0085F00000855401000A000000DD48010015
:202050002DE9F04FADF11C0D80B10169C14CC24DA06121B92868D0F84C058047A0694168A0
:202070002F68A1608068D7F80811086013F0D6F904460DF0A3FB10B1CBA013F053FB12F04A
:2020900009FE684612F042FF042069468DF80000002012F043FFD14FB968D1F804110860F5
:2020B000B868D0F80401006810B9C7A013F03AFB13F034FB13F02EFB07F0B2F9204654F0A9
:2020D0008BFB12F0F7FA11F0A9FEB868D0F8D40090F843000BF064FBB868D0F85824002169
:2020F0000120904711F06CFD0025BD48FE680570F068007807F1080628B9B868D0F858244E
:202110002846014690470CF0DFF9DFF8D8A2B64A07212B460AF1140011F02AFDCA4C4FF4D5
:202130008042CA4920784A6089460870BBE0E068410907D32E208DF8140005A813F0E6FAB3
:20215000CC480068410807D325208DF8140005A813F0DCFAC7480068810807D326208DF8C7
:20217000140005A813F0D2FAC2480068C10807D327208DF8140005A813F0C8FABD480068EB
:20219000010907D329208DF8140005A813F0BEFAB8480068C10909D38DF815502D208DF837
:2021B000140005A813F0B2FAB2480068010A09D38DF8155030208DF8140005A813F0A6FA33
:2021D000AC480068410A09D38DF8155035208DF8140005A813F09AFAA6480068C10A09D353
:2021F0008DF8155023208DF8140005A813F08EFAA0480068810A09D38DF8155036208DF855
:20221000140005A813F082FA9A480068010B09D38DF8155037208DF8140005A813F076FA42
:2022300094480068410B09D38DF8155038208DF8140005A813F06AFA8E480068C00B10D347
:20225000D9F80C0068B18046D8F810B0404613F059FA404610F00AF85FEA0B08F4D1C9F8DC
:202270000C503068D0F898000068B8B113F0D6F83168D1F898100A6804920D6054F0ACFAEF
:2022900031680498D1F898104860049813F03EFA3068D0F89800001D13F030FA2846E06019
:2022B00013F028FA207872490B784BB1DFF8C881A8F1180818F8181F884203D05B1EF9D117
:2022D000284608E0D8F80C004FF0FF3154F0E4FDD8F814000068E06013F008FA2078E168B6
:2022F0000DF000FF13F09AF89AF801108AF801508A080CD2C9081AD354F06EFAB868D0F805
:20231000582428460146904707F1080611E054F063FAF868C068007838B9B868D0F85824B8
:2023300029460120904707F1080613F077F854F053FAE068800908D330683C300068001DE8
:2023500011F0B2F90028049050D1E068000CFFF4EEAE11E09020002014010020D02909D138
:202370008178E170C17861700179A17083686361C168A16111F0CCFE20780EF0B5FA00285C
:2023900004903FF4D4AE0178D029E7DA3168D1F898104860049813F0B9F93068D0F89800B6
:2023B000001D13F0ABF9E7E752616E646F6D5F736565644175746F6D61746963282920669C
:2023D00061696C656400C04643727970746F206F70656E206661696C656400C00C01002023
:2023F0009A3E0020542600207D54010013F016F83168CA6B117B491E117354F0EDF904984D
:20241000017833688DF81410D3F89810486004984378EBB1DC2B0DD0DD2B0BD0E42B09D032
:20243000F32B07D0DE2B05D0DF2B03D0E82B18BFDB2B0FD113F056F99DF81400162809D1F9
:2024500004A813F05BF905E020010020F827002013F05CF99DF814103068162900F13C00EF
:202470003FF46CAFC06D001D13F048F964E7C0465C1900202C01002080190020F1482DE935
:20249000F04F3CC8ADF1240D69463CC11DC881E81D00ED4DED4C009505F11006019604F163
:2024B0005407029704F1340003948046049004F17C008246059004F1180006900DF0CCFACA
:2024D0008146E348C6608560E2480021302205460CF012FEB9F10E0F0CBF3022282228465F
:2024F00039460AF0D5FDDC4F07F59071DB4B08780126C6F3000262F3C710087097F82A0173
:202510000025A94669F3861087F82A0197F82A011822214666F3C71087F82A0197F82B010B
:20253000A7F8363140F0E00087F82B0107F134000AF0AEFD97F840001822214666F3C71059
:2025500087F8400007F14C000AF0A2FD97F8580007F1F4042022414666F3C71087F8580028
:2025700020460AF095FD97F80001C84668F3030087F8000197F8000166F3C71087F800019D
:2025900097F8020166F3C30087F80201102587F80351A7F8049197F8070120F00F0040F0D9
:2025B000040087F8070197F807013022514666F3C71087F8070107F5A2700AF069FD97F84C
:2025D000500166F3C71087F8500197F8520168F3000087F85201A24B97F85201A24968F376
:2025F000410087F8520197F8520168F3820087F8520197F8520166F3C30087F8520197F8C8
:20261000520168F3041087F8520197F8520168F3451087F8520197F8520168F3861087F860
:20263000520197F8520166F3C71087F8520197F8530168F3000087F8530197F8530166F306
:20265000410087F8530197F8530166F3C30087F8530197F8530168F3041087F8530197F8D0
:20267000530166F3451087F8530197F8530166F3861087F8530197F8530168F3C71087F83C
:2026900053011868D0F80001C089A7F85C0197F85E0165F3050087F85E01B7F85E0169F3B5
:2026B0008A10A7F85E0197F85F016FF0030220F0F80040F0580087F85F016A4B87F86221F9
:2026D00097F86301042565F3030087F8630197F8630168F3041087F8630197F8630168F3FD
:2026F000461087F8630197F8630168F3C71087F863015E481C22C7F864310AF0C9FCC7F8D3
:20271000804097F88800584920F00F0040F0030087F8880097F8880066F3C71087F888008A
:2027300097F88900032464F3030087F8890097F88C0066F3000087F88C0097F88C0068F3F3
:20275000410087F88C0097F88C0066F3C30087F88C0097F88C0066F3041087F88C004FF405
:20277000207AA7F890A06FF0520987F88D9097F8920064F3030087F8920097F8920068F382
:20279000071087F8920097F893004FF4FA5B1C2265F3030087F8930007F19800C7F894B009
:2027B0000AF076FC3148C7F89C0097F8A40020F00F0040F0020087F8A40097F8A40066F396
:2027D000C71087F8A40097F8A50064F3030087F8A50097F8A80066F3000087F8A80097F8F7
:2027F000A80068F3410087F8A80097F8A80066F3C30087F8A80097F8A80066F3041087F8C1
:20281000A800A7F8ACA087F8A99097F8AE0064F3030087F8AE0097F8AE0068F3071087F86B
:20283000AE0097F8AF0065F3030087F8AF000848C7F8B0B00799016108F026F809B0BDE82E
:20285000F08FC046CC1C0000D82100207013000000240020C0180020AC1700200080FFFFC2
:202870001401002000C4226488130000281800202DE9F04FA94C2061A9492163A3A10978C8
:20289000ADF1840D00260DF1320040220170A0A10DF132008DF8726010F076FC4FF0010B4B
:2028B0000BF10100CF4D8DF872002878012837D168684FF0FF3154F0EFFAE86B01282FD838
:2028D0000CF07CFF50BB06270FF030FD5FEA000801D17F1EF8D1D5F83C909DF8723005EBC4
:2028F0008907C7F854808BB1E86B342212FB03FA05EB8000C365504610F032FF6437386024
:2029100060B13868314652460CF0F6FB09F10100E863686854F0BCFA474602E0D846FBE77B
:202930003746A76308A812F001FBDFF80483304608AA414607F0C0FEA064314608AA5846C5
:2029500007F0BAFE60644068007811F0D5F858BB10F076FF206B38B302692AB307278DF80D
:2029700018700420ADF81A0006ABADF81C6093E8030090470520236B8DF818701A69ADF8CD
:202990001A0006ABADF81C6093E80300904706208DF8187006AB276BADF81A003A69ADF869
:2029B0001C6093E803009047606C414612F0DEFC02A812F087FA584602A907F06DF8E063F2
:2029D00002A9304607F068F84FF4FA71032220640EF02EFAA06B814611F07AF8002840F055
:2029F000A480944F3868002800F09F80286B4FF0FF3154F051FAD5F830C005F1F4084FF06A
:202A1000FF3E314632464046436833B9036823B9BEF1FF3F08BF964604E00368BB4200F04A
:202A30008180491C521C0830042AEDDBBEF1FF3F78D04FEACE0000EB0802C2F804900029DC
:202A500048F8007058DDDFF8F0C1DFF8F08101290FF2941E20D1624616755675286A1661DC
:202A700003681360C2602B6A90611A7A0C2012FB003282F808B01A7A12FB003256722A6A60
:202A9000137A13FB0022734653602A6A0346107A10FB03224346D3606246FA603B7A88006B
:202AB0004FF00C0C00EBC10013FB0C7383F808B08018876106613B7A067513FB0C735E72CF
:202AD0003B7A467513FB0C797346C9F804303B7A80F8216013FB0C734746DF600227584B62
:202AF00080F820700129436244A7C76117461ABF387A401C032038722F62EF61387A401EDA
:202B10006862304605F0E6FC286B0CE000C046C03135342053656E736F7200C0581C0020C1
:202B3000540A0020604654F0B3F904F14C0138A007F0D8FA04F1500137A007F0D3FA206B22
:202B5000002846D04769DFF8FC806FB1009441461EA80A68898802601EAD818095E80300F2
:202B70005B463246B847206B002832D0026952B141461EA80B68898803601EAF818097E889
:202B900003009047206B20B3476917B307208DF810000625ADF812500CABADF8146004AA07
:202BB000009392E8030002233246ADF83020B847256BBDF83000EF69E08057B1BDF830004A
:202BD00004AE401CADF8300096E8030002220CABB847A06BE16C13A206F0E2F921B0BDE853
:202BF000F08FC046A81200203C2020202020204241434B2020202020203E00C03C202020FF
:202C100020202048454C502020202020203E00C053746174757300C047656E65726963203C
:202C3000436E740057616974696E672E2E2E00C0C14201008024002090390020B94C01008B
:202C500089980000B21C0000B0B50446BC480768ADF1480D002F00F0AC812078401E1228E4
:202C700000F2A781DFE810F06E0157013D01280120010901F600E800C800B70092006700B4
:202C90005D004C00A501340026001C0013007B6C002B00F08E810020A21C0146984788E1CE
:202CB000F86B002800F08581684621460BF090F8F96B7CE1386C002800F07B8168460021A3
:202CD00001220CF019FA60788DF80000396C6EE1F86A002800F06D81684600210E220CF0FE
:202CF0000BFAA11C684611F051FEA57BA1890022ADF80A1005B101228DF80C20F96A57E1B4
:202D1000B86B002800F055816846002102220CF0F3F9A5788DF8015060788DF80000B96B43
:202D300045E1786B002800F04481684621460BF04FF8796B3BE1386B08B3684600211422E3
:202D50000CF0DAF9A5788DF80150A3680193A289ADF80820A17B8DF80A1060788DF80000F2
:202D7000E57B8DF80B50237C8DF80C3094F911208DF80D2061690491396B684688476068EB
:202D9000002800F0168111F0C3F912E1B86A002800F00F816846002124220CF0ADF960786B
:202DB000A11C8DF800000DF1020011F0EFFD04F10C0103A811F0EAFD257EE08A04F1190123
:202DD0008DF818500B22ADF816000DF119000AF05FF9B96AEBE0786A002800F0EA806846A5
:202DF000002102220CF088F9A5788DF8015060788DF80000796ADAE0386A002800F0D98001
:202E10006846002112220CF077F9658862796078ADF8025023798DF80520E11D8DF80000D3
:202E3000A5798DF804300B220DF107008DF806500AF02EF9396ABAE0F869002800F0B9808E
:202E50006846002101220CF057F960788DF80000F969ACE0B86910B120460EF037FAA0784A
:202E700020B9A069002800F0A48003E0A069002800F09F800FF0FAF99BE07869002800F09B
:202E900098806846002113220CF036F96D46A01C0168406829600B22686004F10A0102A833
:202EB0000AF0F6F8796982E03869002800F08180204609F031FB7CE0F868002879D06846B6
:202ED00000210E220CF018F96078A11C8DF800000DF1020011F05AFDA089ADF80C00F968D7
:202EF00065E0B868002864D06846002114220CF003F9A01C01686D46296040686860A07A19
:202F10000B2204F10B018DF808000DF109000AF0BFF8B9684BE0786800284AD068460021F1
:202F300010220CF0E9F860786588211D8DF800000B22ADF8025001A80AF0AAF8796836E08A
:202F5000042500203868A0B36846002119220CF0D3F8A01C01686D46296040686860A07A69
:202F7000410824BF01218DF80810810824BF01218DF80910C10824BF01218DF80A100109B3
:202F900024BF01218DF80B10C10924BF01218DF80C1030F07F001CBF01208DF80D000B22B2
:202FB0000DF10E0004F10B010AF072F839686846884712B0B0BD70472DE9F04FCB4C606957
:202FD0002589216AA689806DADF1240D2A46891908310AF05DF87619B0B26669B16D4919E3
:202FF000C34DB1652968D1F8D41091F88370216A0B1808331B780DF11E021370DFF8F88273
:20301000022F00F1010080B208D141180A7A66694346591C0A70216A401C80B20A180832D9
:20303000126802A9001D0A6080B2A081042102A811F0BEF90290034611F0FEFEF063184671
:2030500011F00EFBA6F84000EA2010F01BF8A9484FF0020B022F80F800B00BD16868406970
:20307000007838B14146087810B94878FF2801D00420E0706769E078397C084338749DF979
:203090001E0012F0EDF987F8460007F17406BE6539899DF91E007B6887F84800B7F85C0095
:2030B0004FF00008401AC01801467860B88987F84780820A18D2020926D310F0070F07D07A
:2030D00000F00700032812BF081C7868401C17E07968C87800F00702401000F0380000EB19
:2030F00042004018001D0BE02868D0F80813384688476769786E10B1B7F8680090B17868AF
:203110007861B889000918D297F8600020B32868D0F80C13384688476769F86CE0B1B7F898
:203130005000C8B92868D0F8541204F114008847404660610CF0A4FED4E02868D0F8B4145F
:2031500038468847787067697E78B86978651EB1F2200FF097FF67692E68D6F8B810087874
:20317000002800F0B780BA89DFF890A1089202F00702022A68D16378002B65D17B78002B51
:2031900062D161698DF81F800DF11600283111F067FE616928314F6803A847600E890681E1
:2031B0000A680260574607F110022B681088401C1080D3F8B8006169436A486E0DF11F029E
:2031D0000421984704F1140938B92868006C006818B19DF81F1080F86810666996F830006A
:2031F000022813D12868D9F80030D0F8D4705A4607F1200103F1280010F058FE30B907F108
:2032100016010DF1160011F02BFE66693C480078862809D1BAF81200401CAAF81200B089E9
:2032300000F010000EF028F82968B8310A68107830B1976C27B16069394688472968B8319F
:20325000D1F89C11484648E02E4A1378002B3AD0089AC2F30132022A35D1787800287FF4B3
:2032700069AF69689DF81E00896853460870E6786769988A002E07F1280207F11C0C00F1EF
:20329000010098820CBF414608212E68D6F8B8000378FBB11C4B404618600091CDF804C0C6
:2032B000D6F8D400117AD6F87863C38C0D20B04710B90DF091FD01E011F018FA2E68D6F809
:2032D000B8106769087828B1896C19B1384688472E686769D6F858123846884740466061AF
:2032F00011F03CFA09B0BDE8F08FC046FC3B002014010020993E002008290020CC260020BE
:203310009E3E00209B3E0020D82700202DE9FE4F0090B74F01913868DFF8DCA2DFF8DC82D4
:20333000B74D02924030D0F89410DFF8D89291F88320B0499B46012A00F084807A68D26887
:2033500001230024137056460C70036834701E6816B9D0F80C05804702984FF0E24616EA75
:203370000B0604EA000008BF00284ED10299A24608201AEA0B0600EA010008BF00283DD089
:20339000464696F90000401E3070B5F8D60042F20146864202D0311D81420DD14846006887
:2033B0000199826C0098904730B10088B5F8D61042F6014282420BD1B5F86600B0F5105FC8
:2033D00021D1A96F48460C3001600FF091FC2EE0361D8E4214BFE1201C2009F0A7FE98F9AC
:2033F000000028B198F90000002800F3FB80EAE03868D0F8582421462046EEE0464696F959
:203410000000401E30701D200FE0464696F900003D68401E3070286C00684068007880090F
:2034300002D210F0F5FB02E0E92009F07FFE98F90000002800F0CC8098F90000002800F3B6
:20345000D180C0E07A68D2680123137000240C7001680E6816B9D0F80C05804748460068C4
:203470000199826C009890476749029ADFF89C910B8814EA0B064FF0020606EA020108BF52
:20349000002931D121464FF0E246114016EA0B0608BF002919D14FF486012026114016EA86
:2034B0000B0608BF00290AD1002874D0008840F6030181426FD01D2009F038FE6BE001999F
:2034D00000985B4654F090FB65E0464696F900004D46401E30702878862802D010F098FB30
:2034F00059E00FF003F856E0464696F90010DFF820C15246491E317043F2084199421470F3
:203510000AD0B5F87E2001F1020E9E4504D0914202D07146914212D178B1008843F60301BD
:2035300081420AD007F096FA96F9000000284FD096F90000002855DC45E0B5F87E20B5F87C
:20355000F61043F6040088422ED090422CD098422AD0B5F84E20904226D0B1F5505F05D0A1
:20357000080B16D31D2009F0E1FD12E0294800684E4600F5C070CCF814003078862802D0A7
:203590000FF0B6FB05E001990098029A5B460EF037F911F02BFA464696F90000C0B196F9A8
:2035B000000000281EDC0EE01B480078022816D0032814D007F04EFA96F9000040B196F9A3
:2035D000000000280EDC3868D0F84C05804709E03868D0F8582420460146904702E02046B0
:2035F00009F0A4FD7868C0680470BDE8FE8FC046140100203C2800203B28002044280020A5
:20361000AC17002098200020461800209E3E00209020002028010021CD2600202DE9F043EF
:20363000071CADF1240D00F06681FE6B002E00F06281B7F84030002B00F05D81307817F17F
:2036500030054FF0000603D097F83810052902D0002E00F05081A94CA11CDFF8A4920D7803
:20367000401E00F0B680801E00F09C80DFF89482C01E6BD0001F26D0801F09D0801E40F0AB
:203690003A81012B40F0378113258DF81C5082E0012B40F0308111F049FD032804D011F06C
:2036B00045FD042840F0278104204B46112505268DF8210003F128078DF8205003228DF836
:2036D000226008AB69E0002D00F015816846314604220BF011FDB7F840002278032840F071
:2036F0000A81F86B401C11F075FD4B4603F188052988012A01F10101298009D01989421A9B
:20371000022A05DBB3F88A108918491EA3F88A1026704446A778188140080CD2012F00F0ED
:20373000EA800120A070206C10F03DFC206C64210FF0A1FBDFE0002F00F0DD80206CA67090
:2037500010F031FC206C0FF06BF8D4E0012B40F0D28011F0EBFC032804D011F0E7FC0428E5
:2037700040F0C98044460725A178206C8DF81C5041B90121A17010F016FC206C64210FF025
:203790007AFB05E0A67010F00EFC206C0FF048F8A0788DF81D00022207AB2846394605F062
:2037B0009FF9A8E0012B40F0A68011F0BFFC032804D011F0BBFC042840F09D804B46B3F82F
:2037D0006800042501228DF81C50401CA3F86800E2E7684631460C220BF08EFCB7F8400045
:2037F0000B2861D1FC6B14F8010B89F83400204611F0F0FCA41C0346204611F008FA054610
:20381000201D11F004FA8046387A4C4689F83000022806D0396804F1280001607A684260FE
:2038300001E03888208503F00100190928BF40F00800590928BF40F01000190B28BF40F435
:203850000060E086834218BF0226B5F57A7FADF8020016D32C48A84213D3A56311F03EFF11
:20387000814611F03BFF00EB092911F037FF00EB0920B0FBF5F16943401A0A300FF09AFB69
:2038900000E00226A06BB8F57A7F019008D342F21070404504D3C4F83C8011F00FFA00E081
:2038B0000226E06B029001E04C46012602258DF8016068468DF800500EF034F903AE0DF1EF
:2038D0000D009DF80110357011F07EFCBDF8021011F07AFC01990FF029F902990FF026F953
:2038F00039460D222846334605F0FAF8B4F86E00401CA4F86E0009B0BDE8F083C01E0020ED
:20391000B81F0020581C0020407E05002DE9F84F07469A4D9A4C28684030D0F894102678C8
:2039300091F883B026B1D0F80C0580472868403001680E6816B9D0F80C058047A1460120EE
:20395000904C89F80000012F677040F2AF80DFF83882DFF838A2BF1E54D07F1E3CD07F1E09
:2039700000F0C0807F1E21D07F1E40F0B6802968096C096891F86D20628191F86E70002F70
:2039900006BFE070071CE7706868406856460178307810FB01F0784381004046C16690F8E6
:2039B000701021F00F0141F0030156E0BBF1010F40F0AA802968D1F8D420096C0968002081
:2039D000C98A6071C90934BF92F8251092F84E10A17011F043FB97E00026BBF1010F6671C7
:2039F0000DD12968D1F8D40090F85300D1F83C148847C07B022802D1304609F07BF80EF0D0
:203A1000D5FD81E062482F680668D7F8D40090F88300012824D09AF800008700F06B8047AE
:203A3000DAF804103C23401AB0FBF7F1B1FBF3F25A43891A227812FB03F0401A3C301FFAFA
:203A500080FAF06B804707FB0A014046C16690F8701021F00F0141F0020180F8701053E078
:203A70009AF800008700F06B8047DAF804103C23401AB0FBF7F1B1FBF3F25A43891A22785E
:203A900012FB03F0401A3C301FFA80FAF06B804707FB0A014046C0F8FC1090F8001121F09A
:203AB0000F0141F0020180F800112DE0002029686071D1F8D400096C0968C98AC90934BFFF
:203AD00090F8251090F84E10A170B7B9C078A0B10229C4BF0220A0700FE02868D0F84C05B1
:203AF000804711E02868006C006890F86910617190F86A00A0700027A77100F0CDFA28683F
:203B1000006C0068002836D02248007898B92868403001680F682FB9D0F80C058047286868
:203B3000006C07687A686178107800F0200020719078E07100E06178032903D0022918BFA3
:203B5000062918D111F06AFC617802290CD01249097811B91149097831B1022189F80010DF
:203B700052F03AFEBDE8F88F832189F8001052F033FE0BF085F9BDE8F88FC0461401002007
:203B90009E3E0020CC260020AC1700205426002098200020FA370020993E00209B3E002071
:203BB0002DE9FE4F8B46054611F038FC944C012D029000F0E08020460068D0F838038047B9
:203BD000002800F0D3800DF04BFC002800F0CE8021464968DFF840A28969DAF808000F789C
:203BF0003C30002F40F0C280864C0068257880476168E268AF00401AB0FBF7F6A068904678
:203C10000027B946114646454B4673EB090301DA884206D839464A4686428A4140DA02460A
:203C300000E039461046EB172A46801BB94110F049FF0646794800680F46C18A006940189A
:203C5000643080464FF00001B6EB080677EB09077042B94124DA11F05DFA02464B4639463F
:203C700030460BF089FE0F4606464FF000017042B94115DA10F0A9FD0546206911F05EF9EE
:203C900010B1206911F0B6FB284610F09FFF2069314611F0ABFB206911F0AAFB002000E036
:203CB000012059490870884698F8000000285DD153480068D0F894000078002739460CF08C
:203CD00043FA00B10127381C4DD14D480068D0F8D4004B4E90F8837070688069007800283E
:203CF00041D1DAF80800494C436C606902216A4698479DF80000002835D0BBF1010F4FF04C
:203D1000010921D0424EDAF80820606996F9001011F1020F06D0926B96F900109047DAF878
:203D3000082060693B4D95F9001011F1020F06D0926B95F900109047DAF8082060696FF0DF
:203D500001012970317002E0DAF8082060692C494968896981F80090D1698847012F04BF55
:203D700000208AF80000002088F80000029852F033FDBDE8FE8F2068D0F894000078012135
:203D90000CF0E2F9029852F027FD606880690078012819D110F05CFA60B16068806901786F
:203DB000012911D10021BBF1010F01700CD010F041FE09E011F032FB6168896902220A700E
:203DD00052F00AFD0AF0DCFF10F042FAB0B960680C30C1680978022909D101680F7837B185
:203DF0002068D0F84C058047241D20680C3001680F781FB9C16808780228FCD0BDE8FE8FAD
:203E100014010020542600209C3E002000240020382800203928002090200020142400205C
:203E3000F0B500217422ADF17C0D68460BF064F9F2201DA911F0CAFA954DBDF874001DA97B
:203E5000A5F87C00F32011F0C1FABDF874000DF10101A5F87E00E22010F0F8FCE88EADF815
:203E70000A00410806D305F12001096803A80160BDF80A00810805D3A91D098804A80180CE
:203E9000BDF80A00C10807D305F1240109680DF112000160BDF80A00010908D30DF11600FB
:203EB00005F16001302209F0F3F8BDF80A00410905D3E86BAF6B1390BDF80A001297020BFF
:203ED0004FEAE02106D3A91C09881CA80180BDF80A00C11247108610C310021140082CBF8C
:203EF0000F240B24780824BFA41CA4B2700824BF241DA4B2580824BF3034A4B2500824BFAD
:203F10000834A4B2480824BFA41CA4B2204609F0D3FE071C00F0BA8005260DF1010100F816
:203F3000016B0A68026049684160BDF80A10083011F04AF9BDF80A10844648080BD3BDF818
:203F50000C10604611F040F9BDF80E1011F03CF9BDF80A108446880807D3BDF810106046CE
:203F700011F032F9BDF80A108446C8080BD3BDF81210604611F028F9BDF8141011F024F928
:203F9000BDF80A108446080B07D3BDF87010604611F01AF98446BDF80A103E4AD38808090F
:203FB00061D3BDF81610604611F00EF9BDF8181011F00AF9BDF81A1011F006F9BDF81C1093
:203FD00011F002F9BDF81E1011F0FEF8BDF8201011F0FAF8BDF8221011F0F6F8BDF8241064
:203FF00011F0F2F8BDF8261011F0EEF8BDF8281011F0EAF8BDF82A1011F0E6F8BDF82C1065
:2040100011F0E2F8BDF82E1011F0DEF8BDF8301011F0DAF8BDF8321011F0D6F8BDF8341064
:2040300011F0D2F8194611F0CFF8117811F0CCF8BDF83A1011F0C8F8BDF83C1011F0C4F8B2
:20405000BDF83E1011F0C0F8BDF8401011F0BCF8BDF8421011F0B8F8BDF8441011F0B4F86C
:20407000BDF80A108446480906D3129960460EF05DFD13990EF05AFD05F1280122463046C6
:204090003B4604F02DFD38460EF0F0F81FB0F0BDB81F0020581C00202DE9F84F8C4E4FF090
:2040B00000088C4C30688DF80080D0F8D400A57890F883B011F021F94FF0010A4FF6FF71E5
:2040D0000AFA05F28918014030686181D0F8B800824D077847B3826B32B342F21A006946E2
:2040F00090477D4867790378C3B1BFB99DF80030A3B13068D0F8B800C06D78B180472978DE
:20411000071C0AD07068406863890078083010FB01F0B7FBF0F15818608167799DF8001011
:20413000608907FB010060816078002840F0B3806B483768016807F1D4000268DFF8A49142
:2041500092F88320012A33D0D0F888018047A1782A78002800F09B803368A9F8E280D3F885
:20417000D43093F8314089F8E44093F8243089F8E53099F8E63043F0200389F8E63099F8F0
:20419000E6305043800023F01F0343F0020389F8E63099F8E630C9F8F00068F3871389F814
:2041B000E63089F8E78089F8E81089F8E98074E0C86B804704460BF0F1FC074628788100A0
:2041D00007FB01434C4604F1A40210784FF0020C6CF3030010707068C4F8A030406894F80D
:2041F0000021007868F30302083080B201FB003194F8883084F80021604660F3030384F8C3
:2042100088303068C4F88410D430016891F8831001293CD1D0F888018047C0B36868D4F807
:204230008410884233D294F8A400042368F3030084F8A4002A787568C4F8A08012FB03F0DB
:2042500001B2686894F888300078083080B2414323F00F0040F0030084F888004FF4FA5536
:20427000C4F8841094F88C00A4F89A8040F0080084F88C0094F88C00C4F894506AF30410A7
:2042900084F88C0007FB02F00FF074FB05E01C2008F04CFF01E002F0E9FFBBF1020F14D1E3
:2042B0003068006C006880B10F481149007848B90E48007830B98322084602700AF0E0FD34
:2042D000BDE8F88F022208460270BDE8F88FC04614010020CC260020FA370020542600205A
:2042F00098200020AC170020993E00209B3E00209E3E00202DE9FE4F8A4693468046002114
:20431000022268460AF0F8FE844F38798DF8008028B107F1700010F003FF00203871B7F986
:204330005A405FEA080007F170054FF0000600F0A2800D3800F0A28072386AD07B380128A7
:2043500040F29C80801E00F09480401E00F08A80401E00F08380401E79D0B8F1300FC0F273
:204370008D80B8F13A0F07DBB8F1600F40F38680B8F1670F80F282800321601E90FBF1F05A
:2043900094FBF1F3201A401EC0B24FEA600903FB01F0241A012C10D0022C1ED115F8094041
:2043B00068463146102224F00F0405F8094004F05FFD044305F809400FE015F809003146D0
:2043D000102200F00F00044605F80900684604F04FFD44EA001005F809004C4650482A5D69
:2043F000F96C005D02EA0009B86B4A4503D138A204F0D6FD04E037A204F0D2FD05F80490BE
:2044100097F85A00012132220B4610F01CF8044621E00321601E002C90FBF1F0A4EB0000B4
:20443000A0F10100C0B24FEA600227DD94FBF1F04843201A022805D0012813D1A85C40F054
:20445000F00002E0A85C40F00F00A8540AE0284610F026F80124A7F85A400FE00124A7F8B4
:204470005A4008E00121E0B232220B460FF0DCFFCDE7E0B2C6E7284610F052FE112715F881
:20449000010B01A902220DF06DFCDAF800001EA1098880190180DAF80000731CD9B240184C
:2044B00001A90FF02AFCF31C7F1EDEB2E7D1B8F1000F0BD0DAF8080014A10F2208F0E8FDF9
:2044D000641CABF802400120ABF80000BDE8FE8F00C046C0496E76616C696420696E707508
:2044F000742E204F6E6C792075706461746564207769746820737570706F727465642063DC
:2045100068616E6E656C73002000C04620202020204348414E204D41534B00C0581C002022
:20453000B81C00002DE9F04F7A4CA068416EADF12C0D02A88847DFF8E0A1DFF8E0B19AF922
:20455000000038B1594691F90000002818BF002040F0DC8010F062FFDFF8C4910A9099F8D6
:204570000000800806D27D20002107F0F1FA0025079001E00025079502958DF80C500595BB
:2045900003208DF81800DFF89C81C8F87C51A8F8765198F88F7198F88011634B012665F385
:2045B000030166F3000788F8801198F8801188F88F7166F3C71188F8801198F88F1166F30A
:2045D000410188F88F1198F88F1165F3820188F88F1198F88F1165F3C30188F88F1198F842
:2045F0008F1165F3041188F88F1198F88F1160F3461188F88F111868D0F8282408F5C871BA
:20461000F4209047494807789FB94846A768007880090FD3F86B8047C8F87C0198F880112F
:2046300021F00F0141F0020188F880118DF80C600290A7683F4A3E484FF080738DE80C00B0
:204650003F6D3D4B006808F5BA79494602AAB8470028608006D5022041F288310BF00AFE50
:204670002E464FE0594691F90000344F401C087097F90000401C38709AF90000C4F80C9088
:204690002946401C8AF8000002200BF0F3FD264F26483968057001F1AC021068077807B168
:2046B0008025B4F84C0017684FF67F7303401D432843A4F84C0098F88C21387860F3C71288
:2046D00088F88C21D1F8D400C28CA4F85A20428D00F14403A4F858201A6804F14F052A602C
:2046F00058686860D1F8D400C18CA8F8A611418D00F14407A8F8A4113A6808F5CE7422601F
:20471000786860600A9852F067F830460BB0BDE8F08FC04690200020462800204528002060
:204730009A3E0020AC170020140100203D2800201424002020004300F97B05004428002014
:204750002DE9F04F824C4FF0FF0A00254FF0100BADF1240D84F834A004F1300984F832A0C4
:2047700065E00C2015FB0096E068690306AA042310F08CFD06F116079DF818009DF819305F
:2047900038700698F375C0F38541032903D09621B1EB106F38D1C0F30140F8703878FF28D5
:2047B00030D0FE282ED07E282CD007A80EF074F8E06869034FF088524FF4005310F066FD44
:2047D00064484FF4005650F8041D361FB6B2B1F1FF3F06F1885201D1032EF4D810684FF027
:2047F0000108414600F0FF03FF2B18BF8846491C000A0529F6DB1060079810F04FF846440A
:20481000FE8001E0A7F806B038787C280BD0782809D0702804D0FE2808BF84F8325004E0F1
:2048300084F8345001E084F833506D1CEDB2E078A84296DC94F83310FF2920D194F83420E4
:20485000FF2A15D194F832200025FF2A18D0521C92FBF0F14143521A91B28A0002EBC102DC
:204870004A44978B002F08BF84F832A003D00A4684F833200225214691F8331000E00125E2
:20489000FF2910D1002684F83360304606F082FF6178084360707E2130460EF025FD21464D
:2048B000E07891F8331094F83220FF2A14D1491C91FBF0F24243891AC8B284F8320006F0BF
:2048D00069FF61780843607094F83200FE210EF00BFD204690F8331084F8311094F83320BC
:2048F00010462F46810001EBC0014944898BA570781EE18602D0401E23D025E0172923D998
:204910001046C91F01AA89B208F0D8FA9DF80F00C00816D300200090BDF81220E18E94F8B2
:2049300033000323891AC91F01AA89B205F05AFC50B9BDF8101039B19DF814000CF07CFE6B
:2049500002E0002004F0BEFB09B0BDE8F08FC046B8220020002000112DE9F04F814DA86857
:20497000416EADF12C0D02A88847A8467E4C7F4DA178606902290FD170B1002007F0C6FBBE
:20499000D8F80800416860698847281D0068806901210170002060614FF0010A002684F8F8
:2049B00002A00028059630D10BF056F8D8B10BF053F8012817D00BF04FF8052813D00BF00C
:2049D0004BF80C280FD00BF047F80D280BD00BF043F80B2807D00BF03FF80E2803D028681C
:2049F000D0F84C058047D8F8080000F1200130B92868D0F84C058047D8F8081020310968DA
:204A100004F1200088475148E0630FF0F5F92968D1F8D40090F85300D1F83C14884707469B
:204A30002868D0F8D40090F942000BF06FFEB0F1FF3F05D0010828BF4FF6FF70444908809A
:204A500038897968DFF80C913B6832464FF47A7BA9F81661401EC9F81821414303EB5100AA
:204A7000B0FBFBF0A9F8340199F821016AF3030089F8210199F820016AF3C71089F820017C
:204A90002868D0F8C4038047F8B9B88932496F68BBFBF0F0C0B208707968BBFBF0F008706D
:204AB0002868D0F8D40090F85300022806D00EF0CFFA032809D105215C2001E00221A820A5
:204AD000264A11706968096808706769D8F80860A168DFF88CB03FB3002007F017FB2A684A
:204AF000D8F808106069D2F8D420637892F853200F4693420AD0496888476868806980F8AA
:204B100000A0D8F80800A16806680EE0022100228DE806003F6D09F58A76002302AA3146F8
:204B3000B847C8F80C6008E0366809F58A7904F1200358464A46B04760612868D0F8D40089
:204B500090F853000BB06070BDE8F08F54F10080DA180020AC17002054260020CC26002055
:204B7000E03200209020002000240020140100202DE9FE4F9B4615468946824610F04EFC2A
:204B90007B49019008680CAF504508BF48687B4C6FF0010828B1B03010F0D0F9002840F070
:204BB000D6800FF0E1F8061C00F0DB8004F5C07010F020FC0023B4F9A800C6F80C90401CD7
:204BD00086F832306FF31F30A4F8A800C6F808B0B4F8A80030866748C6F810A097E80C00C8
:204BF00020210027B8461940104006F1180383E80300424686F8332006F1200383E88001B7
:204C1000E8683064287C86F8440028687063287986F83800A868F0636869B064A869F064D3
:204C3000287F86F85000687F86F851002F7C27B9EF6817B1012086F844002F795FB999F85B
:204C50000C0000F00F00022805D1012086F83800D9F808007063484608274568002D18BF48
:204C7000002F70D100886FF30900B0F5305F18BF022506D196F83300082540F0100086F80C
:204C9000330006F1180090E80C00414606F1180745EA0200194387E80300D4F8CC00824543
:204CB00007D194F8D000410824BF00F0FE0084F8D00031480768002F39D004F19400009011
:204CD000D4F89C10D4F8A02004F18C052B463046B84710F1030F10D0B6F93010B4F9A820FD
:204CF000914207D0B4F9A81001F6FF716FF31F31A4F8A81010F1020F1BD010F1030F18D030
:204D100096F83300B6F9308040F0800086F8330000278AF8F4702868864205D0F068007BF5
:204D300000F00F0002281CD10BF040FA19E06FF00200B4F9A810804601F6FF716FF31F317A
:204D5000A4F8A81005E07F1E2846FFB285E76FF0020894F8D00040F0040084F8D000C4F8E1
:204D7000CCA0019851F038FD4046BDE8FE8FC046EC290020FFEFFF9FDC1F000040290020A5
:204D90002DE9F04F734C724FE06807F5A271ADF12C0D814207D1704890F90000002818BF25
:204DB000002040F0D18010F039FB0025DFF8CC810A90D8F80000A7F84651D0F8B80000782D
:204DD000002807BF4FF4860AAB466EA090E8000CA068416E02A888470320604E8DF81800E1
:204DF00030780595800807D27D20294606F0B0FE8DF81850079000E00795C7F84C51584B51
:204E100097F85001574AC7F8643165F3030087F85001E3685069B44607F1340607F1340125
:204E30009E420CD0B7F84420B0F840309A4206D1B7F84220C38F9A4208BF4F4914D04E4EAA
:204E5000FD86494BBE6301221A7097F8412022F00F0242F0020287F84120FD6397F84020E5
:204E700065F3030287F84020DFF8009199F800700E46FFB9D8F80010D1F8B8100F781FB9A1
:204E90009CF80010890915D339490F7837F07F0710D1A068C06B8047B060307B012720F060
:204EB0000F0040F002003073B0688DF80C702D4B02905869A1680F6D2E4B02AA8DE8000CEF
:204ED0003146B8470028608009D50A9851F084FC022041F288310BF0CDF9284634E01E494B
:204EF000274F91F90000244E401C087097F90000E6602946401C387002200BF0BBF9D8F872
:204F10000000AC3001680F7889F8005007B18025B4F84C10806A4FF67F720A401543294351
:204F3000A4F84C10C18CA4F85A10418D00F14407A4F85810396804F14F06316078687060DC
:204F50000A9851F049FC01200BB0BDE8F08FC046AC17002090200020452800209A3E0020DB
:204F700000C42264002400203C2800203D2800209E3E0020F97B0500F018002014010020B8
:204F90004428002000004F8C200000012DE9F0470646F08917468946ADF1280DC01D80B259
:204FB00005460AF08FFD7A4CFF280BD1284604F089F8854204DD641C207800B90520E3E003
:204FD000012000E000206178D9B917B1022F18D1B8B1307A8DF80C00F788ADF80A70B588D4
:204FF000ADF8085000230093E18E94F8330001AA032305F0F7F89DF814003074BDF8107089
:20501000B78194F83310E58EE06806AA04238846490310F03BF9069800F0FF0100F0FF001C
:205030007E2806D140467C210EF05EF9069901F0FF017C2940F0A580F08942F20102C11D53
:205050008FB2E9198A4240F39A80F188327AC1F301238DF81D10B18843EA82038DF81C3079
:205070008A1006468DF81E200423C0F3851201F0030142EA81128DF81F2010FB03F1F21D80
:2050900001F0FC01731990B28DF820101FFA83FA0D282BDB48463146002210F05FF80246F8
:2050B000052107A810F05AF89DF82010334600F03F064A4641EAA011B0008DF8201040F045
:2050D000020096268DF8210029468DF8226040460CF074FC0646514607AA072340466670DA
:2050F0000CF06CFC304360704DD135E004F124004946324607F0CCFF07A90A68301900F188
:205110002409484609790260731D0171002204F1240099B210F022F89DF82010962300F0D0
:205130003F068DF8223041EAA011B0008DF820103B4640F0020007AE49468DF821003268CB
:20515000B0790A60B288887140468A8004F1240229460CF033FC6070E18EED194FEA880628
:20517000AAB2C919E18606EBC8010919A1F84C2048B1404651460CF05FFA607803E005204E
:2051900000E001206070C0B20AB0BDE8F087C046B82200202DE9F047DFF8B4910E46D9F858
:2051B00008101F4615460446ADF1300DBEB1B5B130784FF0010808FA00F001420FD01046B3
:2051D000002110F033F9A560666010F027F9614D82462878022804DB504651F0FDFA00207A
:2051F000B2E000286CD101F087FF5B495B4E086840F00200086008A8C9F800600FF0E6FE26
:20521000574E5849707808AA0A9005F1D4000BF08BFF554905F5847008AA0BF085FF08A848
:205230000FF09CFE192108AB3078504A099005F154000DF05BFA4E4A05F170001A2108AB75
:205250000DF054FA4B49002205F59E7013460CF08CFF4949002205F5C07013460CF085FF9E
:2052700046480068C0F3814030B1454A05F12800042100230EF07CFCB078012802D10E2016
:2052900006F080FD05F194000FF022FD05F18C000FF01EFD002185F8241029762962072024
:2052B00085F8280285F82510364B1970A9600526E960354A2E610420EA610EF067FD28787F
:2052D00005EB8001401CC1F8AC40C0B22870504651F082FA1FB968460FF040FD6F463868D8
:2052F0004FF4FA76E6602060B86941466062388A6175E082F869E062786800280CBF40F615
:20531000C410002120612148E06120622175A061F86800B1E061786900B12062B86800B10D
:20533000A061C82204F13000002109F0E5FE04F1480000210EF058FA1549002204F1B0007D
:2053500013460CF012FF20460CB0BDE8F087C046CC2108404029002000200940110000E07B
:20537000541F00000D490100F5B20000E10C0100C1FD000081410100E5450100B44F0050BF
:20539000E1160100FB370020E9A40000876F00009B5301002DE9F04F754C0646A068D0F80F
:2053B0000001807AADF15C0DC00008F085FC00280C9008BF1A2400F0D6804FF0010AF07DDC
:2053D0008DF848A006F118018DF849000A680DF14A073A604A687A60097A397210F01EF847
:2053F0001590A068D0F888240DF1460181209047B07D00283DD004208DF803A04FF00008CA
:205410008DF80400B78A8DF80280A568ADF80070D5F894246946D22090474FF6FF79C346C6
:2054300045461DE0C00043F800B0B18AC0188180DCF80020D42008A9904702E04846ADF890
:2054500004008DF80780B08A8DF806803B68ADF80000D3F894246946D12090476D1CADB2BD
:2054700004F108073A6802F580721068C088A84236DCB08A00279DF84920ADF838000DF197
:205490004A018DF83A700DF13B0007F001FEA068D0F894248DF844A00EA9D0209047071CC1
:2054B00018D1B08A31461022ADF808000DF10A0007F0EEFD3069A7680790D7F8942402A908
:2054D000D3209047071C02D10C9838B104E00C9820B101E00C9808B10CF0C8FEFCB23FE049
:2054F000ADF80250B08AADF80000D2F888236946D12090470028A1D1BDF8040081459DD054
:20551000ADF82000A068D0F8882408A9D420904704F1080718B10C9808B303461CE03868AD
:2055300004F108073B6800F2944CD3F8000190F80AE00C9B404601E0401CC0B2864507DD19
:2055500003EBC0018988894502D0B28A8A42F3D186457FF467AF13B118460CF087FE1924DB
:20557000159851F039F9204617B0BDE8F08FC0460C0100202DE9F04F704C002704F18C00BE
:20559000ADF1140DB946B846056802978246CDF80C9025B3D4F8A000B84203D1D4F89C0096
:2055B000B8421AD0D4F89C60F6B1D4F89C1028690969884218D195F83300400914D3012742
:2055D000D4F89C00C06840880028F9D0D4F89C00C06840880128F3D006E0012704E004F147
:2055F000D40002210FF030FF002D43D087F0010B03A802AA594608F0CFFD5FEA000809D0CF
:20561000012F07D0039929B104F59E700FF0E9FA4D462FE0002D2DD04948066856B3B8F197
:20563000000F27D0039828BBCDF800B002980190D4F89C00D4F8A0100AF108035246B047BD
:20565000401E02D0401E08D014E0029800B9284601214B460091014605E001230093D4F82C
:205670009C00D4F89C100069B1F930104A4603F005F960E0002F5ED0002D5CD060682969E2
:20569000884252D1B8F1000F0BD0039848B1D4F89C0030B9D4F8A00018B908200DF0B8FA81
:2056B00049E008200EF0C0FF95F8330004F1D406C0F3001028B950460EF086FCC4F89C002B
:2056D00004E050460EF080FCC4F8A000A8691D49C0430860A8694A6810434860E869C04376
:2056F00041F8080CE86951F8042C104341F8040CEC68082029460EF049FB20460EF022FB39
:205710002088A0F6020040B141F21E01401A04D041F6E671401A012803D8012021460EF056
:2057300035FB4FF08041304603E004F1D4004FF480610FF089FE05B0BDE8F08F40290020FB
:20575000E01F0000101004402DE9F04F8246ADF11C0D01F0D1FC5F4800780AF07DF95E4CFB
:205770000026012811D90C380FD0401E14D0401E012805D80FF07AF8022803D00FF076F83C
:2057900021680DE005211F2608E00FF06FF80228F6D101210E4601E003210726204601606A
:2057B0004E4AD068C0F38150012804D112680120120E904006430FF0F1FBDFF828B1DFF841
:2057D0002081FF2240185B46401E471CC8F800007F1E03F8012BFBD1DAF80020002702F0E2
:2057F000FF03FE2B1CD0D4463B46012502F0FF04FF2C0ED0A04205D3A14203D805FA04F454
:20581000264201D0022062E002F0FF0227430BF802305CF8042F5B1C02F0FF04FE2CE7D174
:20583000092006F0AFFA3048C0F800A0374801210DF0DAFF364C00254FF00109A84609FA68
:2058500005F0064214D1074207BF05F0FF0141F4C0411BF805005AF82010244804F0C0FD25
:20587000E8B24FF0FF310EF063FCC4F8008001E0042020601A4800686D1C241D8542DED9DF
:2058900004A80FF06BFB1A4C20781B4A05901948102104AB0CF02AFF68460FF097FB606882
:2058B000174902901548CDF80C806A460BF03CFC144951F80D0C20F4F85040F4005041F87D
:2058D0000D0C114AC1F8FF9F4046C2F8009007B0BDE8F08F1E3A002080280020A84F0050BB
:2058F0007C280020443C00206C3E0020007FC767D41F0000DC3C0020754501000C3B002070
:20591000E51F01000D3009402C00094050380020043700202DE9FE4F894693468046002182
:205930000222684609F0E8FB694F78798DF8008028B107F160000FF019FB00207871B7F9FE
:205950005E40404607F160050026FB280CDCFA2880F2868000286FD00D3800F081800E3808
:205970007ED064384AD007E0FC3870D0401E67D0401E61D0401E32D0B8F1300F70DBB8F158
:205990003A0F05DBB8F1600F6ADDB8F1670F67DA0321601E90FBF1F0241A641EE0B244105B
:2059B00040080CD2285D3146102200F00F0082462855684603F05CFA4AEA00100BE0285D94
:2059D0003146102220F00F0082462855684603F04FFA4AEA0000285597F85E0038E03D4885
:2059F00090F87A1041B999302946102207F050FB3046294608F032FE01242FE00321601EFC
:205A1000002C90FBF1F0A4EB0000A0F10100C0B24FEA600224DD94FBF1F04843201A022850
:205A300005D001280CD1A85C40F0F00002E0A85C40F00F00A85403E028460FF097FA0FE066
:205A50000121E0B22F220B460EF0EEFC05E0E0B201212F220B460EF0F6FC0446A7F85E4046
:205A7000102715F8010B01A902220CF07BF9D9F8000010A1098880190180D9F80000731CFB
:205A9000D9B2401801A90EF038F9F31C7F1EDEB2E7D1B8F1000F0BD0D9F8080006A11522FC
:205AB00007F0F6FA641CABF802400120ABF80000BDE8FE8F2000C0462020202020444546FF
:205AD00041554C54204E574B204B455900C046C0581C0020C01E00202DE9F04F634D804644
:205AF00005F108000068416EADF14C0D02A8884763490A68D432106890F883906148DFF85A
:205B100060B10778002F00F09E805F48077837F07F0740F09880BBF81600524CB9F1010F6C
:205B300000F10100ABF816000AD000200590E06694F8703060F30303012084F8703019E01A
:205B5000C4F8FC8094F8000120F00F0040F0030084F8000194F80031012060F3C71384F81A
:205B700000310027C4F8F87094F8013160F3030384F8013149683C4BC96818700F781FB984
:205B9000D2F8842300219047B9F1010F01D10EF06FFB0FF043FCA84604F164071290DFF893
:205BB000D0A0D8F80810F87BB9F1010F11D00025A4F86650294605F0CBFF0790D8F808005B
:205BD000066D5246294608208DE80300106802AA15E0496E0AA8884704F1F4070025388A73
:205BF0000D95294605F0B4FF0F90D8F80800066D5246294602208DE8030010680AAA1D4BBD
:205C10003946B0471C495A460880118B002810D41A4991F90000B9F1010F00F101000870B8
:205C300014BF6434F434C8F80C40129850F0D4FD12E0491C88B22F461083124912980F70DD
:205C500050F0CAFD06E00F495A460027108B0F70401C10830EF04AFD13B0BDE8F08FC046ED
:205C7000CC260020AC1700203B280020902000201424002025C70000D027002044280020E5
:205C9000140100209B3E00209E3E0020F8B5694C2168054614310868407F002800F0C880C0
:205CB000D1F8C000B5F84220C08C904240F0C080D1F8581305F128008847002800F0B8803D
:205CD000206840690026467721687031486E90F8290028B16068816A022088472168703168
:205CF000086890F82B0018B16068816A01208847287C400908D36068816A10208847206803
:205D1000D0F82813802088476068C16B202088472168C868D1F8FC14103088476868226803
:205D300041785269007800EB0120C0F30321517622685269C0F3003797762268526900F04C
:205D50000F03C0F3031793772068D0F8D40080F82C7022680C32D2F8C81091F84F000F2899
:205D700006D093689B7F984202DD6B68DF780FB19068807F4873106880F83060D2F8C800C1
:205D9000417B0F290BD19068C07E022850D1D2F8580180472068D0F86C018047F8BDD2F8B5
:205DB00000252846904723680C339868C07E022815D1D3F8F014186888472268D2F8D4000B
:205DD0001169467BD06831F81630D2F8F0244FF4707707FA06F1C91A904723680C33D3F882
:205DF000C8002A89D3F8A83190F82C1002209847206800F11401D1F8C020D0F8D400527B0F
:205E100090F82C0082420FD00868D1F8E81488472268D2F87C015169886050694169D2F877
:205E3000F024904721681431D1F8141310208847F8BDC046140100202DE9F04FDFF8989165
:205E50000646A9F1080000F108078068D0F80001807AADF12C0DC00007F02EFF002808901E
:205E700008BF1A2500F0B4800FF0D8FA00244FF0FF0B25460A9027E0ADF800608DF80240D2
:205E9000D2F88823D02069469047D8B99DF80C00012802D19DF80B1019B998B99DF807105A
:205EB00081B1002814BF082304230DF103005B1E00F801BBFBD105703868D0F89424694615
:205ED000D0209047641CE4B23A6802F580721068C07AA042D0DC4C462068D0F80001C088DF
:205EF0004FF6FF78AA461DE0089901EBC0018A8896421CBF401CC0B261D1C1F800A0A1F8E4
:205F100004803A68D42004A9904702E07F1CBFB225E020682268D0F800016D1CEDB202F5E6
:205F30008072C088A842D8BF55464BDDADF80060ADF80250D2F88823D120694690470028C3
:205F5000E7D1BDF804008045E3D0ADF810002068D0F8882404A9D420904790BB57462268AD
:205F700002F580721068C088B84210DDADF80060ADF80270D2F88823D12069469047002851
:205F9000C4D1BDF81000BDF804108842BED12068D0F80001C088B842BBD1ADF81480ADF878
:205FB000168006A85946082209F0A6F82068D9F8003000F29447D3F80001837A50468342B3
:205FD00092DC19250A9850F007FC08980CF04EF928460BB0BDE8F08F140100202DE9F0476E
:205FF000644E04469246306894F83080D0F888240F469946ADF1300D0DF10E018B209047D7
:206010003068D0F8882401A98A20904794F82500002840D1B8F1000F1AD1BDF80E104FF694
:20603000FE70884206DCBDF80E10884240F09C8001A916E0B4F844009DF80E508DF8100035
:2060500000128DF81100BDF80E008DF812501CE0B8F1020F0AD0B8F1030F40F0858004F169
:20607000280104A80EF0FCFE092512E0207CC00934BFB4F84200B4F844008DF81000001246
:206090008DF81100208D8DF81200001205258DF81300002015E002280CBF052509250128B7
:2060B00018BF04F11C0106D13068D0F8882407A98920904707A904A86A1E06F0E9FF94F886
:2060D00026000DEB0501C8733068D0F898343A46294604A89847002846D1B8F1000F19D1CA
:2060F000BDF80E104FF6FE70884205DCBDF80E10884239D101A915E0B4F844009DF80E5036
:206110008DF8240000128DF82500BDF80E008DF826501BE0B8F1020F09D0B8F1030F23D10F
:2061300004F1280109A80EF09BFE082212E0207CC00934BFB4F84200B4F844008DF82400EE
:2061500000128DF82500208D8DF82600001204228DF827003068D0F8A444CDF800903868FA
:2061700009A95346A04708B1F32000E000200CB0BDE8F0871401002001282DE9F84F40F04E
:20619000B080DFF88491D9F83401012840F0A6800220C9F834010EF0F3F901200CF0C4FD6E
:2061B0005FEA000805D00120C9F834010EF0F6F999E011200EF0F6FF00280CBF00250125CA
:2061D00010200EF0EFFF08B145F002050F200EF0E9FF08B145F00405444CA06A0068014649
:2061F00001208847012805D099F83801012818BF002703D1002002F0F5FF01270EF0CCFFE5
:20621000DFF8ECA040080AD20026206A80680146504688478346BBF1040FF6D000E001264E
:20623000304600214FF0FF3201F0ECFA012E0ED0BBF1010F05D1206A40680121024650469F
:20625000904732496C39086840F003000860206840690146284688470B200EF0A3FF254E39
:2062700030B12068C06A3146091D0246088890470A200EF097FF28B12068C06A3146024627
:20629000088890471C4903200124C9F834011B4E0C600023336028460BF0A8F90128FAD15B
:2062B000174D286804200CF03FFD0646154804602868012F02D1204602F094FF0EF048FFAE
:2062D00008200CF031FD0746C9F834410EF066F957EA060018BF4FF0FF3804E06FF0040899
:2062F00001E06FF001084046BDE8F88FB80100100040034046190000282008608001044370
:206310002C2009400C400940E81A0020902208402DE9F04F634C8346A4F10805A868D0F8E0
:206330000001807AADF12C0DC00007F0C5FC08900FF074F80A90A86800F59162D0F80001A5
:2063500000894FF6FF790026C846CA4636E006AF5946082238460DF0CBFE78B92068D0F84A
:206370001C153846884700283AD02068ADF80490D0F894246946D120904731E0ADF814805B
:20639000ADF8168006A8FF21082208F0B5FE2068D0F8942404A9D42090472068ADF804A0BE
:2063B000D0F894246946D120904720682268D0F80001761CB6B202F591620089B04208DCB8
:2063D0000A9850F009FA089808B10BF04FFF002064E02068D0F80001C07A0127002531E0D9
:2063F0002068D0F800012268C0886D1CEDB202F5916230E0ADF800608DF802501268D02002
:2064100069469047A8B99DF80C00012810D19DF80B0068B90DF102020820002112F8013F84
:20643000FF2B03D1401E01F10101F7D10829BCD0002720682268D0F800016D1CEDB202F556
:206450009162C07AA842D5DC002FAED12068D0F80001C0880025A842A7DDADF80060ADF8E0
:2064700002501268D120694690470028B8D1BDF804008045B4D0ADF810002068D0F8882465
:2064900004A9D420904700283FF461AF0A9850F0A3F9089808B10BF0E9FE19200BB0BDE8B7
:2064B000F08FC046140100202DE9F04106460F465E485F4990F80080ADF1400D0DF13200B9
:2064D0000A6809790260002E017144D0594C256B002F40D0D5B1E869C0B1072001238DF816
:2064F000100031460C22ADF8123006A80023ADF8143006F0CDFD09A839460E2206F0C8FD5B
:20651000ED6904A803C81A2206ABA847787B012538B9A06BE16CB8F1000F14BF0FA21CA266
:2065300006E0A06BE16CB8F1000F14BF25A232A273880093338801933B7B02930DF132038C
:2065500002F02EFD206C65700DF02DFD206C64210CF091FCA57010B0BDE8F08152656A6F71
:20657000696E65642D2D4D6F64653D25732C20416464723D3078253034782C2050616E4956
:20659000643D3078253034782C2043683D2564004A6F696E65642D2D4D6F64653D25732CAB
:2065B00020416464723D3078253034782C2050616E49643D3078253034782C2043683D25F3
:2065D0006400C04652656A6F696E65642D2D4D6F64653D25732C20416464723D307825305C
:2065F00034782C2050616E49643D3078253034782C2043683D4648004A6F696E65642D2D6C
:206610004D6F64653D25732C20416464723D3078253034782C2050616E49643D3078253011
:2066300034782C2043683D464800C046B81F0020AC1C0000581C0020F8B5074661485F4C35
:20665000001DC26A0168B7F5C067C2F30722C4F81071C1F38441C4F81421C069C4F8181112
:20667000C0F38120C4F8280100F0A38094F830616EB9C4F82C71D4F81801C4F82001D4F893
:206690001461C4F81C61D4F82851C4F82451D4F82C01D4F81451002854BF02236FF00103D9
:2066B00004F59072116800EB4000C018431000EB937001EBA0011160D4F82011C4F81C51EE
:2066D00000291CDD1E293DDDD4F8240130B93429B4BF15391E21C4F8201125E02A29BABF32
:2066F000D4F820010B381E20C4F82001D4F81C013E28D4BF401C3F20C4F81C011FE0D4F8FE
:206710002401032812D011F10A0FA6BFD4F820010B300120C4F82001D4F81C010028CCBFF5
:20673000401E0020C4F81C01032009E011F1140FA6BFD4F8200115300120C4F8200100200C
:20675000C4F824014FF08057D7F8A401B4F81C111B4D40684FF47F4208230646009128465B
:206770003021B047D7F8A40101214FF40032112340680091064604212846B047D7F8A401FF
:20679000B4F8201140684FF4F80212230646009104212846B047D7F8A401B4F8241140688E
:2067B0004FF440620A230446009120212846A047F8BD002084F83001F8BDC046E81A0020E7
:2067D00000A00C4000A00C402DE9F04704460020ADF1200D5E4D04908046059004A905AA59
:2067F00006AB286894F82470D0F8A864CDF818802046B04700284FD1049A66696068238971
:20681000AA46311AAAF10805581A1FFA80F91AB9A868D0F84C058047A868B4F85C30D0F8AE
:20683000B0C400930196CDF808900598001D03900498A169A36D3A461530E04760BB05F14D
:206850000806336803F5867318682289395C501A94F86020208132B1D3F8001220468847C2
:20687000336803F58673A68906F00706032E02D160680078E073D3F89033E27B38463146D3
:206890009847DD2810D00746A868D0F8AC34E27B04983146984708B1C1B231E00598007C7A
:2068B000464620B9DC2F02D1DD20014628E0A069B0F1FF3F04BFDB2080461FD0A868D0F806
:2068D0008C2407A97120904755462868D0F8000103892C27304601E0401C80B2834211DC76
:2068F0000598A169C368F200491CD150C0681058B0F1FF3F02D106980121C17040464146FE
:20691000607020E00799049A07FB00119142E3D12968D1F800118A7A464601E0761CF6B2A9
